:100000000C943A000C9449030C9449030C94490352
:100010000C9449030C9449030C9449030C94490330
:100020000C9449030C9449030C9449030C94120357
:100030000C9449030C94FB020C9449030C9449035F
:100040000C9449030C9449030C94E1010C9449036A
:100050000C94E0020C9449030C9449030C9449035A
:100060000C9449030C94490301000185800185012A
:10007000860006A011241FBECFEFD8E0DEBFCDBFA3
:10008000E8E6F0E040E017C0B591A59135912591E3
:10009000059107FD0CC095918591EF01F92FE82F8F
:1000A00005900D92A217B307D9F7FE0104C01D9267
:1000B000A217B307E1F7E437F40731F70E949B0278
:0800C0000C940703F894FFCF34
:1000C80010C00E942A0358F00E94230340F029F42C
:1000D8005F3F29F00C94380351110C9432030C94AF
:1000E80046030E94790268F39923B1F3552391F3EB
:1000F800951B550BBB27AA2762177307840738F08F
:100108009F5F5F4F220F331F441FAA1FA9F335D0EB
:100118000E2E3AF0E0E832D091505040E695001C9F
:10012800CAF72BD0FE2F29D0660F771F881FBB1F59
:10013800261737074807AB07B0E809F0BB0B802D37
:10014800BF01FF2793585F4F3AF09E3F510578F063
:100158000C9438030C9432035F3FE4F3983ED4F3D5
:10016800869577956795B795F7959F5FC9F7880F37
:10017800911D9695879597F90895E1E0660F771F89
:10018800881FBB1F621773078407BA0720F0621B1A
:0E019800730B840BBA0BEE1F88F7E0950895E9
:1001A6000FC00E94230338F00E942A0320F09523F3
:1001B60011F00C9438030C94460311240C9432036A
:1001C6000E94790270F3959FC1F3950F50E0551F79
:1001D600629FF001729FBB27F00DB11D639FAA2796
:1001E600F00DB11DAA1F649F6627B00DA11D661FE5
:1001F600829F2227B00DA11D621F739FB00DA11D06
:10020600621F839FA00D611D221F749F3327A00DBF
:10021600611D231F849F600D211D822F762F6A2F5B
:1002260011249F5750409AF0F1F088234AF0EE0FC0
:10023600FF1FBB1F661F771F881F91505040A9F7ED
:100246009E3F510580F00C9438030C9432035F3FB7
:10025600E4F3983ED4F3869577956795B795F79529
:10026600E7959F5FC1F7FE2B880F911D96958795A1
:0402760097F9089557
:10027A0011C00E94230338F00E942A0320F039F4A7
:10028A009F3F19F426F40C9446030EF4E095E7FB1D
:10029A000C943803E92F0E94790258F3BA176207BF
:1002AA0073078407950720F079F4A6F50C943103B7
:1002BA000EF4E0950B2EBA2FA02D0B01B901900177
:1002CA000C01CA01A0011124FF27591B99F0593FBB
:1002DA0050F4503E68F11A16F040A22F232F342F03
:1002EA004427585FF3CF469537952795A795F04051
:1002FA005395C9F77EF41F16BA0B620B730B840B66
:10030A00BAF09150A1F0FF0FBB1F661F771F881F1D
:10031A00C2F70EC0BA0F621F731F841F48F4879575
:10032A0077956795B795F7959E3F08F0B0CF939567
:0E033A00880F08F09927EE0F97958795089584
:10034800E89409C097FB3EF4909580957095619567
:100358007F4F8F4F9F4F9923A9F0F92F96E9BB271D
:100368009395F695879577956795B795F111F8CF99
:10037800FAF4BB0F11F460FF1BC06F5F7F4F8F4F04
:100388009F4F16C0882311F096E911C0772321F0FA
:100398009EE8872F762F05C0662371F096E8862F92
:1003A80070E060E02AF09A95660F771F881FDAF7E9
:0A03B800880F9695879597F9089530
:1003C2001F920F920FB60F9211248F939F93EF9368
:1003D200FF93E0918001F09181018091C600E0508D
:1003E200FF4F8083809182019091830101969093C7
:1003F2008301809382018091800190918101019615
:10040200909381018093800180918001909181017C
:100412008038910520F01092810110928001FF91A5
:10042200EF919F918F910F900FBE0F901F90189593
:10043200CF92DF92EF92FF92CF93DF93EB01BC0159
:1004420080E090E00E94A4016B017C01BE0180E08B
:1004520090E00E94A4019B01AC01C701B6010E9479
:100462003E0320E030E84BE355E40E94420320E0E3
:1004720030EE49EF54E40E941D030E944A02CB0170
:100482000E94EF02DF91CF91FF90EF90DF90CF902B
:020492000895CB
:100494000E94810288F09F5798F0B92F9927B7518D
:1004A400B0F0E1F0660F771F881F991F1AF0BA9514
:1004B400C9F714C0B13091F00E943103B1E008953E
:1004C4000C943103672F782F8827B85F39F0B93F30
:1004D400CCF3869577956795B395D9F73EF49095C7
:0E04E4008095709561957F4F8F4F9F4F0895C3
:1004F20057FD9058440F551F59F05F3F71F04795D3
:10050200880F97FB991F61F09F3F79F087950895B7
:10051200121613061406551FF2CF4695F1DF08C0D6
:10052200161617061806991FF1CF869571056105F3
:04053200089408958C
:100536000E94B6027894C0E0D0E006C062E370E0A4
:10054600CE010E9419022196C333D105BCF3C2E342
:10055600D0E006C062E370E0CE010E941902219746
:06056600DD23C4F7E8CF1D
:10056C0084B1826084B983E080936F008CE98093BE
:10057C0087008FE38093860087E0809389008FEC5F
:10058C008093880082E8809380008AE180938100C8
:02059C000895C0
:10059E00092E0394000C11F4882352F0BB0F40F483
:1005AE00BF2B11F460FF04C06F5F7F4F8F4F9F4FC3
:0205BE0008959E
:1005C0001F920F920FB60F9211248F9381E08093A8
:0E05D00085018F910F900FBE0F901F90189510
:1005DE0021E020938401209184012111FCCF90937E
:0805EE00890080938800089544
:1005F6001F920F920FB60F921124109284010F9042
:080606000FBE0F901F90189524
:10060E00EC010E944E030E944D03CE010E944F0347
:06061E00CE010E944B0317
:100624001F920F920FB60F9211240F900FBE0F90CE
:040634001F90189566
:0E0638005058BB27AA270E943D010C94CF0208
:0E06460000240A9416161706180609060895D1
:0E06540000240A9412161306140605060895D3
:0E066200E894BB2766277727CB0197F9089508
:0C06700097F99F6780E870E060E0089553
:08067C000E9464000C94CF02FF
:080684000E94D3000C94CF0288
:06068C009FEF80EC0895D1
:040692000C940000C4
:040696000E9462005C
:02069A000895C1
:02069C000895BF
:02069E000895BD
:0106A0000158
:00000001FF
