:100000000C9437000C94A1030C94A1030C94A1034D
:100010000C94A1030C94A1030C94A1030C94A103D0
:100020000C94A1030C94A1030C94A1030C946A03F7
:100030000C94A1030C9453030C94A1030C94A103FE
:100040000C94A1030C94A1030C94A1030C94A103A0
:100050000C94A1030C94A1030C94A1030C94A10390
:100060000C94A1030C94A103010001018000112450
:100070001FBECFEFD8E0DEBFCDBFE8E6F0E040E046
:1000800017C0B591A59135912591059107FD0CC03B
:1000900095918591EF01F92FE82F05900D92A21708
:1000A000B307D9F7FE0104C01D92A217B307E1F709
:1000B000ED36F40731F70E9461000C945F03F89469
:0200C000FFCF70
:1000C2000E941D03789484B18E7F84B984B18E7F9F
:1000D20084B981E088B985B964EB70E086E990E083
:1000E2000E949B02E12CF12C00E010E001151105A9
:1000F20059F40F5F1F4F2FEF33ED80E32150304053
:100102008040E1F700C00000309942C00130110583
:10011200B1F464EB70E080E090E00E949B029FEFFC
:1001220023ED30E3915020403040E1F700C0000061
:100132000F2EF0E4EF2EF6E0FF2EF02D27C0023056
:10014200110581F48FEF93ED20E381509040204020
:10015200E1F700C000000F2EF0E4EF2EFFE1FF2ECA
:10016200F02D14C00330110589F43FEF83ED90E3C5
:10017200315080409040E1F700C000000F2EF0E8BF
:10018200EF2EFEE3FF2EF02D00E010E00F5F1F4F79
:100192001899ACCF0115110521F4E114F10409F409
:1001A200A5CF2FEF33ED80E3215030408040E1F7BF
:1001B20000C00000CCE7D0E006C066E970E0CE01E6
:1001C2000E949B022197CA36D105BCF790E4E9163A
:1001D20096E0F90651F42FEF3FE18EE421503040D2
:1001E2008040E1F700C0000021C090E4E9169FE1E1
:1001F200F90669F424E535E885E491E021503040C0
:1002020080409040D9F700C000C000000FC020E835
:10021200E2162EE3F20651F43AEA8AE09BE822E083
:100222003150804090402040D9F7000064EB70E0EC
:0A02320086E990E00E949B0259CF7C
:10023C0010C00E94820358F00E947B0340F029F406
:10024C005F3F29F00C94900351110C948A030C9489
:10025C009E030E94FB0268F39923B1F3552391F39B
:10026C00951B550BBB27AA2762177307840738F019
:10027C009F5F5F4F220F331F441FAA1FA9F335D076
:10028C000E2E3AF0E0E832D091505040E695001C2A
:10029C00CAF72BD0FE2F29D0660F771F881FBB1FE4
:1002AC00261737074807AB07B0E809F0BB0B802DC2
:1002BC00BF01FF2793585F4F3AF09E3F510578F0EE
:1002CC000C9490030C948A035F3FE4F3983ED4F3B0
:1002DC00869577956795B795F7959F5FC9F7880FC2
:1002EC00911D9695879597F90895E1E0660F771F14
:1002FC00881FBB1F621773078407BA0720F0621BA5
:0E030C00730B840BBA0BEE1F88F7E095089573
:10031A000FC00E947B0338F00E94820320F09523CD
:10032A0011F00C9490030C949E0311240C948A03EC
:10033A000E94FB0270F3959FC1F3950F50E0551F81
:10034A00629FF001729FBB27F00DB11D639FAA2720
:10035A00F00DB11DAA1F649F6627B00DA11D661F6F
:10036A00829F2227B00DA11D621F739FB00DA11D90
:10037A00621F839FA00D611D221F749F3327A00D4A
:10038A00611D231F849F600D211D822F762F6A2FE6
:10039A0011249F5750409AF0F1F088234AF0EE0F4B
:1003AA00FF1FBB1F661F771F881F91505040A9F778
:1003BA009E3F510580F00C9490030C948A035F3F92
:1003CA00E4F3983ED4F3869577956795B795F795B4
:1003DA00E7959F5FC1F7FE2B880F911D969587952C
:0403EA0097F90895E2
:1003EE0011C00E947B0338F00E94820320F039F482
:1003FE009F3F19F426F40C949E030EF4E095E7FB50
:10040E000C949003E92F0E94FB0258F3BA1762076F
:10041E0073078407950720F079F4A6F50C948903E9
:10042E000EF4E0950B2EBA2FA02D0B01B901900101
:10043E000C01CA01A0011124FF27591B99F0593F45
:10044E0050F4503E68F11A16F040A22F232F342F8D
:10045E004427585FF3CF469537952795A795F040DB
:10046E005395C9F77EF41F16BA0B620B730B840BF0
:10047E00BAF09150A1F0FF0FBB1F661F771F881FA8
:10048E00C2F70EC0BA0F621F731F841F48F4879500
:10049E0077956795B795F7959E3F08F0B0CF9395F2
:0E04AE00880F08F09927EE0F9795879508950F
:1004BC00E89409C097FB3EF49095809570956195F2
:1004CC007F4F8F4F9F4F9923A9F0F92F96E9BB27A8
:1004DC009395F695879577956795B795F111F8CF24
:1004EC00FAF4BB0F11F460FF1BC06F5F7F4F8F4F8F
:1004FC009F4F16C0882311F096E911C0772321F085
:10050C009EE8872F762F05C0662371F096E8862F1C
:10051C0070E060E02AF09A95660F771F881FDAF773
:0A052C00880F9695879597F90895BA
:10053600CF92DF92EF92FF92CF93DF93EB01BC0154
:1005460080E090E00E945E026B017C01BE0180E0CB
:1005560090E00E945E029B01AC01C701B6010E94B9
:10056600960320E030E84BE355E40E949A0320E02E
:1005760030EE49EF54E40E9475030E94CC02CB0191
:100586000E944703DF91CF91FF90EF90DF90CF90CD
:020596000895C6
:100598000E94030388F09F5798F0B92F9927B75105
:1005A800B0F0E1F0660F771F881F991F1AF0BA950F
:1005B800C9F714C0B13091F00E948903B1E00895E1
:1005C8000C948903672F782F8827B85F39F0B93FD3
:1005D800CCF3869577956795B395D9F73EF49095C2
:0E05E8008095709561957F4F8F4F9F4F0895BE
:1005F60057FD9058440F551F59F05F3F71F04795CE
:10060600880F97FB991F61F09F3F79F087950895B2
:10061600121613061406551FF2CF4695F1DF08C0D1
:10062600161617061806991FF1CF869571056105EE
:040636000894089587
:10063A0084B1826084B983E080936F008CE98093EF
:10064A0087008FE38093860087E0809389008FEC90
:10065A008093880082E8809380008AE180938100F9
:02066A000895F1
:10066C00092E0394000C11F4882352F0BB0F40F4B4
:10067C00BF2B11F460FF04C06F5F7F4F8F4F9F4FF4
:02068C000895CF
:10068E0021E020930001209100012111FCCF9093D5
:08069E00890080938800089593
:1006A6001F920F920FB60F921124109200010F9015
:0806B6000FBE0F901F90189574
:1006BE00EC010E94A6030E94A503CE010E94A7038F
:0606CE00CE010E94A3030F
:1006D4001F920F920FB60F9211240F900FBE0F901E
:0406E4001F901895B6
:0E06E8005058BB27AA270E94F7010C94360336
:0E06F60000240A941616170618060906089521
:0E07040000240A941216130614060506089522
:0E071200E894BB2766277727CB0197F9089557
:0C07200097F99F6780E870E060E00895A2
:08072C000E941E010C9436032B
:080734000E948D010C943603B4
:06073C009FEF80EC089520
:040742000C94000013
:040746000E945F00AE
:02074A00089510
:02074C0008950E
:02074E0008950C
:00000001FF
