:100000000C9437000C9482030C9482030C948203AA
:100010000C9482030C9482030C9482030C9482034C
:100020000C9482030C9482030C9482030C944B0373
:100030000C9482030C9434030C9482030C9482037A
:100040000C9482030C9482030C9482030C9482031C
:100050000C9482030C9482030C9482030C9482030C
:100060000C9482030C94820301000101800011248E
:100070001FBECFEFD8E0DEBFCDBFE8E6F0E040E046
:1000800017C0B591A59135912591059107FD0CC03B
:1000900095918591EF01F92FE82F05900D92A21708
:1000A000B307D9F7FE0104C01D92A217B307E1F709
:1000B000ED36F40731F70E9461000C944003F89488
:0200C000FFCF70
:1000C2000E94FE02789484B18E7F84B984B18E7FBF
:1000D20084B981E088B985B964EB70E086E990E083
:1000E2000E947C0200E010E0C0E0D0E0209751F4D2
:1000F20021962FEF33ED80E3215030408040E1F72D
:1001020000C0000030992FC0C130D10561F49FEFCB
:1001120023ED30E3915020403040E1F700C0000071
:1001220000E416E01FC0C230D10561F48FEF93EDF9
:1001320020E3815090402040E1F700C0000000E43D
:100142001FE110C0C330D10569F43FEF83ED90E3A6
:10015200315080409040E1F700C0000000E81EE30B
:10016200C0E0D0E021961899C1CF209721F4011563
:10017200110509F4BBCF2FEF33ED80E3215030405E
:100182008040E1F700C0000066E970E089E690E097
:100192000E947C02003496E0190751F42FEF3FE1F0
:1001A2008EE4215030408040E1F700C000001FC0C3
:1001B20000349FE1190769F424E535E885E491E00C
:1001C2002150304080409040D9F700C000C000006C
:1001D2000EC000382EE3120751F43AEA8AE09BE897
:1001E20022E03150804090402040D9F7000064EB7B
:0C01F20070E086E990E00E947C0278CF6B
:1001FE0010C00E94630358F00E945C0340F029F483
:10020E005F3F29F00C94710351110C946B030C9405
:10021E007F030E94DC0268F39923B1F3552391F317
:10022E00951B550BBB27AA2762177307840738F057
:10023E009F5F5F4F220F331F441FAA1FA9F335D0B4
:10024E000E2E3AF0E0E832D091505040E695001C68
:10025E00CAF72BD0FE2F29D0660F771F881FBB1F22
:10026E00261737074807AB07B0E809F0BB0B802D00
:10027E00BF01FF2793585F4F3AF09E3F510578F02C
:10028E000C9471030C946B035F3FE4F3983ED4F32C
:10029E00869577956795B795F7959F5FC9F7880F00
:1002AE00911D9695879597F90895E1E0660F771F52
:1002BE00881FBB1F621773078407BA0720F0621BE3
:0E02CE00730B840BBA0BEE1F88F7E0950895B2
:1002DC000FC00E945C0338F00E94630320F095234A
:1002EC0011F00C9471030C947F0311240C946B0388
:1002FC000E94DC0270F3959FC1F3950F50E0551FDF
:10030C00629FF001729FBB27F00DB11D639FAA275E
:10031C00F00DB11DAA1F649F6627B00DA11D661FAD
:10032C00829F2227B00DA11D621F739FB00DA11DCE
:10033C00621F839FA00D611D221F749F3327A00D88
:10034C00611D231F849F600D211D822F762F6A2F24
:10035C0011249F5750409AF0F1F088234AF0EE0F89
:10036C00FF1FBB1F661F771F881F91505040A9F7B6
:10037C009E3F510580F00C9471030C946B035F3F0E
:10038C00E4F3983ED4F3869577956795B795F795F2
:10039C00E7959F5FC1F7FE2B880F911D969587956A
:0403AC0097F9089520
:1003B00011C00E945C0338F00E94630320F039F4FE
:1003C0009F3F19F426F40C947F030EF4E095E7FBAD
:1003D0000C947103E92F0E94DC0258F3BA176207EC
:1003E00073078407950720F079F4A6F50C946A0347
:1003F0000EF4E0950B2EBA2FA02D0B01B901900140
:100400000C01CA01A0011124FF27591B99F0593F83
:1004100050F4503E68F11A16F040A22F232F342FCB
:100420004427585FF3CF469537952795A795F04019
:100430005395C9F77EF41F16BA0B620B730B840B2E
:10044000BAF09150A1F0FF0FBB1F661F771F881FE6
:10045000C2F70EC0BA0F621F731F841F48F487953E
:1004600077956795B795F7959E3F08F0B0CF939530
:0E047000880F08F09927EE0F9795879508954D
:10047E00E89409C097FB3EF4909580957095619530
:10048E007F4F8F4F9F4F9923A9F0F92F96E9BB27E6
:10049E009395F695879577956795B795F111F8CF62
:1004AE00FAF4BB0F11F460FF1BC06F5F7F4F8F4FCD
:1004BE009F4F16C0882311F096E911C0772321F0C3
:1004CE009EE8872F762F05C0662371F096E8862F5B
:1004DE0070E060E02AF09A95660F771F881FDAF7B2
:0A04EE00880F9695879597F90895F9
:1004F800CF92DF92EF92FF92CF93DF93EB01BC0193
:1005080080E090E00E943F026B017C01BE0180E028
:1005180090E00E943F029B01AC01C701B6010E9416
:10052800770320E030E84BE355E40E947B0320E0AA
:1005380030EE49EF54E40E9456030E94AD02CB010D
:100548000E942803DF91CF91FF90EF90DF90CF902A
:02055800089504
:10055A000E94E40288F09F5798F0B92F9927B75163
:10056A00B0F0E1F0660F771F881F991F1AF0BA954D
:10057A00C9F714C0B13091F00E946A03B1E008953E
:10058A000C946A03672F782F8827B85F39F0B93F30
:10059A00CCF3869577956795B395D9F73EF4909500
:0E05AA008095709561957F4F8F4F9F4F0895FC
:1005B80057FD9058440F551F59F05F3F71F047950C
:1005C800880F97FB991F61F09F3F79F087950895F1
:1005D800121613061406551FF2CF4695F1DF08C010
:1005E800161617061806991FF1CF8695710561052D
:0405F80008940895C6
:1005FC0084B1826084B983E080936F008CE980932E
:10060C0087008FE38093860087E0809389008FECCE
:10061C008093880082E8809380008AE18093810037
:02062C0008952F
:10062E00092E0394000C11F4882352F0BB0F40F4F2
:10063E00BF2B11F460FF04C06F5F7F4F8F4F9F4F32
:02064E0008950D
:1006500021E020930001209100012111FCCF909313
:080660008900809388000895D1
:100668001F920F920FB60F921124109200010F9053
:080678000FBE0F901F901895B2
:10068000EC010E9487030E948603CE010E9488032A
:06069000CE010E9484036C
:100696001F920F920FB60F9211240F900FBE0F905C
:0406A6001F901895F4
:0E06AA005058BB27AA270E94D8010C941703B2
:0E06B80000240A94161617061806090608955F
:0E06C60000240A941216130614060506089561
:0E06D400E894BB2766277727CB0197F9089596
:0C06E20097F99F6780E870E060E00895E1
:0806EE000E94FF000C941703A9
:0806F6000E946E010C94170331
:0606FE009FEF80EC08955F
:040704000C94000051
:040708000E945F00EC
:02070C0008954E
:02070E0008954C
:0207100008954A
:00000001FF
