S01E0000456D6265646465642D46696E616C2D50726F6A6563742E73726563E1
S11300000C9434000C9451000C9451000C94510045
S11300100C9451000C9451000C9451000C94510018
S11300200C9451000C9451000C9451000C94510008
S11300300C9451000C9451000C9451000C945100F8
S11300400C9451000C9451000C9485030C945100B1
S11300500C94BB030C9451000C9451000C9451006B
S11300600C9451000C94510011241FBECFEFD8E022
S1130070DEBFCDBF11E0A0E0B1E0E0EBF8E002C0EC
S113008005900D92A636B107D9F721E0A6E6B1E0B6
S113009001C01D92A43FB207E1F70E94EB000C944B
S11300A056040C9400000E94A1010E9478030E944F
S11300B0E20160E07BE480E090E00E94CA032FEF5D
S11300C089E698E1215080409040E1F700C00000AB
S11300D0E6E6F1E08091040190910501A09106010A
S11300E0B091070180839183A283B383809100013F
S11300F090910101A0910201B09103018483958341
S1130100A683B78308950F931F93CF93DF938C0136
S1130110C0E0D0E00FC0BE01660F771F660F771FE7
S11301206A597E4F44E050E0C8010E944904892B7B
S113013031F02196C830D10570F380E001C081E030
S1130140DF91CF911F910F910895CF93DF93CDB796
S1130150DEB760970FB6F894DEBF0FBECDBF82E066
S11301600E94CC01682F606282E00E94B90183E0A2
S11301700E94CC01682F606883E00E94B901BE012F
S11301806F5F7F4F82E50E9407038130D1F4CE0177
S113019001960E943C03813081F4CE0101960E94B5
S11301A08300882329F086E391E00E940E0409C0AD
S11301B085E491E00E940E0404C083E591E00E946E
S11301C00E042FEF83ED90E3215080409040E1F73F
S11301D000C00000D4CF2FEF80E792E02150804090
S11301E09040E1F700C000000E945300789489E534
S11301F091E00E940E040E94A5009BB19F7B9BB9D5
S1130200662321F09BB190689BB903C09BB19F7793
S11302109BB92BB190E0880F991F922F917E892B67
S11302208BB98BB180628BB982E08A95F1F700C0FB
S11302308BB18F7D8BB908959BB190649BB99AB1B2
S1130240917E9AB9882321F08BB180688BB903C061
S11302508BB18F778BB98BB180628BB982E08A9531
S1130260F1F700C089B18E7190E0959587959BB1A7
S11302709F7D9BB99AB19E619AB99BB19F7B9BB9B3
S11302800895CF93DF93C82FD62F82958F700E9445
S1130290FD006D2F8C2F8F700E94FD00DF91CF9198
S11302A00895CF93DF93C82F0E941C01D82FD295B5
S11302B0D07F8C2F0E941C018D2BDF91CF9108954C
S11302C080E00E9451018823DCF308958AB18E6F87
S11302D08AB98FE59AEE0197F1F700C0000060E05B
S11302E083E00E94FD008FE090E40197F1F700C0E5
S11302F0000060E083E00E94FD008FE891E0019738
S1130300F1F700C0000060E083E00E94FD0095EC7E
S11303109A95F1F7000060E082E00E94FD0080E021
S11303200E94600160E088E20E94410180E00E9436
S1130330600160E088E00E94410180E00E94600169
S113034008950E94660160E081E00E94410181E01D
S11303500E94600160E086E00E94410180E00E940A
S1130360600160E08EE00E94410180E00E94600133
S11303700895CF93C62F95B19B7F95B990E0880FD0
S1130380991F8E770E947F038C2F0E947F0385B173
S1130390846085B9CF91089595B19B7F95B990E01C
S11303A0880F991F8E7780680E947F0380E00E94E7
S11303B07F0395B1946095B908956FE081E00E9440
S11303C0B90108950E94DD016DE88AE20E94B90135
S11303D06EE38BE20E94B9016EE18CE20E94B901E6
S11303E060E08DE20E94B90160E485E10E94B901F8
S11303F06DE381E10E94B90184E10E94CC01982F50
S1130400937029F4682F636084E10E94B901089510
S11304104F925F926F927F928F929F92AF92BF9210
S1130420CF92DF92EF92FF920F931F93CF93DF93BC
S1130430D82F7B01C42F59018C3029F08E3061F004
S1130440912C812C10C00F2EF0E39F2EF02D0F2E37
S1130450F7E78F2EF02D07C06894992494F80F2E97
S1130460F2E18F2EF02D84E00E94CC01682F6F778B
S113047084E00E94B9018AE00E94CC01682F606880
S11304808AE00E94B90160E081E00E94B901412C38
S1130490512C32010CC0F701E40DF51D608189E097
S11304A00E94B9018FEF481A580A680A780A8C2FFB
S11304B090E0A0E0B0E0481659066A067B0658F3BF
S11304C06D2F81E00E94B901DC3041F48DE00E947F
S11304D0CC01682F60688DE00E94B9010F2EF0ED09
S11304E0CF2EF7E0DF2EE12CF12CF02D84E00E94DA
S11304F0CC01C82FE1E0CE1AD108E108F10829F0B7
S113050080FD03C0892D8C2389F38DE00E94CC01EA
S1130510682F6F778DE00E94B901CD28CE28CF28AF
S113052009F460C086E00E94CC018B7109F05CC0C4
S1130530C821C0FD02C0C1E001C0C2E0DC3009F046
S113054054C08AE00E94CC01D82F8CE00E94CC01D8
S1130550282F2770A9F08D2F90E00197880F991FFD
S1130560880F991F880F991F820F911D092E000C67
S1130570AA0BBB0BF80180839183A283B38311C0C0
S11305808D2F90E0880F991F880F991F880F991F4E
S1130590092E000CAA0BBB0BF80180839183A28364
S11305A0B383D11101C0D1E0D13108F0D0E1C12C25
S11305B0D12C76010DC085010C0D1D1D89E00E9412
S11305C0CC01F8018083FFEFCF1ADF0AEF0AFF0A9C
S11305D08D2F90E0A0E0B0E0C816D906EA06FB062D
S11305E050F303C0C3E001C0C3E08C2FDF91CF916F
S11305F01F910F91FF90EF90DF90CF90BF90AF903D
S11306009F908F907F906F905F904F900895EF929E
S1130610FF920F931F93CF93DF9300D000D0CDB7F9
S1130620DEB7182F7B0167E08DE00E94B901F70166
S113063010838E010F5F1F4F970141E0B7018CE0DB
S11306400E940802813051F449815A816B817C8176
S1130650403151056105710519F403C083E001C0FF
S113066083E00F900F900F900F90DF91CF911F9127
S11306700F91FF90EF900895EF92FF920F931F93C5
S1130680CF93DF9300D000D0CDB7DEB77C0160E01C
S11306908DE00E94B90183E9F701808380E28183C0
S11306A08E010F5F1F4F970142E0B7018CE00E945B
S11306B00802813091F407C0F701E90FF11D308180
S11306C023279F5F02C020E090E09430A8F3F70155
S11306D0E90FF11D9081291383E00F900F900F9083
S11306E00F90DF91CF911F910F91FF90EF9008959C
S11306F084B18C6284B98CB581658CBD08958EBD3E
S11307000DB407FEFDCF8EB508951F920F920FB65C
S11307100F9211242F933F938F939F93AF93BF9383
S1130720EF93FF93E0EFF1E0808191812091C60087
S1130730DC01A259BE4F2C93019691838083EEEE87
S1130740F1E0208131812F5F3F4F31832083803856
S1130750910520F01092F1011092F001FF91EF91B8
S1130760BF91AF919F918F913F912F910F900FBEA9
S11307700F901F9018951F920F920FB60F9211248D
S11307808F9381E0809308018F910F900FBE0F909B
S11307901F901895DC01CB01880F991FAA1FBB1F5E
S11307A0880F991FAA1FBB1F9C01AD01220F331F85
S11307B0441F551F220F331F441F551F60E074E26E
S11307C084EF90E00E942704BA01A9014150510925
S11307D061097109DB01CA0188279F70AA27BB2719
S11307E0892F9A2FAB2FBB278093C5004093C40059
S11307F0E1ECF0E08081886D8083EEE6F1E086E84C
S1130800DF011D928A95E9F70895909108019923D3
S1130810E1F3109208018093C60008950F931F938B
S1130820CF93DF938C01C0E0D0E0F801EC0FFD1F03
S113083080810E9405042196F801EC0FFD1F808140
S11308408111F3CFDF91CF911F910F910895A1E210
S11308501A2EAA1BBB1BFD010DC0AA1FBB1FEE1F36
S1130860FF1FA217B307E407F50720F0A21BB30B81
S1130870E40BF50B661F771F881F991F1A9469F7FD
S113088060957095809590959B01AC01BD01CF0159
S11308900895FB01DC0104C08D910190801921F4BD
S11308A041505040C8F7881B990B0895F894FFCF26
S11308B040F88C1EAF51DA0201257800496E636F4F
S11308C072726563742056657273696F6E000A4DA7
S11308D04652433532322069732076657273696FEC
S11308E06E20322E3000416363657373204772615A
S11308F06E746564004163636573732044656E6957
S11309006564006572726F720052464944205265F4
S1090910616465720A0037
S9030000FC
