S01E0000456D6265646465642D46696E616C2D50726F6A6563742E73726563E1
S11300000C9434000C9451000C9451000C94510045
S11300100C9451000C9451000C9451000C94510018
S11300200C9451000C9451000C9451000C94510008
S11300300C9451000C9451000C9451000C945100F8
S11300400C9451000C9451000C9487030C945100AF
S11300500C94BD030C9451000C9451000C94510069
S11300600C9451000C94510011241FBECFEFD8E022
S1130070DEBFCDBF11E0A0E0B1E0EEE6FEE002C0DD
S113008005900D92A234B107D9F721E0A2E4B1E0C2
S113009001C01D92A83CB207E1F70E94ED000C9448
S11300A035070C9400000E94A3010E947A030E9469
S11300B0E40160E07BE480E090E00E94CC032FEF59
S11300C089E698E1215080409040E1F700C00000AB
S11300D008950F931F93CF93DF9300D01F92CDB752
S11300E0DEB71F928F9381E091E09F938F938E01EF
S11300F00F5F1F4F1F930F930E944B04C8010E9470
S113010010040F900F900F900F900F900F900F907E
S11301100F900F90DF91CF911F910F910895CF937E
S1130120DF93CDB7DEB760970FB6F894DEBF0FBE8E
S1130130CDBF82E00E94CE01682F606282E00E94FF
S1130140BB0183E00E94CE01682F606883E00E94B7
S1130150BB012FEF8DE399E4215080409040E1F7FB
S113016000C00000BE016F5F7F4F82E50E9409035B
S1130170813049F5CE0101960E943E038130F9F4A5
S11301800EC0E1E0F0E0EC0FFD1FE10FF11D8081F6
S11301900E94690080E20E9407041F5F01C010E012
S11301A0183078F38AE00E9407042FEF81E19AE780
S11301B0215080409040E1F700C0000004C08EE26E
S11301C091E00E9410042FEF83ED90E321508040D2
S11301D09040E1F700C00000C5CF2FEF80E792E028
S11301E0215080409040E1F700C000000E9453007D
S11301F0789484E391E00E9410040E948F009BB1E4
S11302009F7B9BB9662321F09BB190689BB903C087
S11302109BB19F779BB92BB190E0880F991F922FC8
S1130220917E892B8BB98BB180628BB982E08A95E0
S1130230F1F700C08BB18F7D8BB908959BB19064A9
S11302409BB99AB1917E9AB9882321F08BB18068C9
S11302508BB903C08BB18F778BB98BB180628BB9AB
S113026082E08A95F1F700C089B18E7190E095958E
S113027087959BB19F7D9BB99AB19E619AB99BB1B9
S11302809F7B9BB90895CF93DF93C82FD62F829578
S11302908F700E94FF006D2F8C2F8F700E94FF00C3
S11302A0DF91CF910895CF93DF93C82F0E941E0151
S11302B0D82FD295D07F8C2F0E941E018D2BDF91D9
S11302C0CF91089580E00E9453018823DCF30895C0
S11302D08AB18E6F8AB98FE59AEE0197F1F700C063
S11302E0000060E083E00E94FF008FE090E401974B
S11302F0F1F700C0000060E083E00E94FF008FE897
S113030091E00197F1F700C0000060E083E00E94F3
S1130310FF0095EC9A95F1F7000060E082E00E94FE
S1130320FF0080E00E94620160E088E20E944301D5
S113033080E00E94620160E088E00E94430180E066
S11303400E94620108950E94680160E081E00E94B9
S1130350430181E00E94620160E086E00E94430163
S113036080E00E94620160E08EE00E94430180E030
S11303700E9462010895CF93C62F95B19B7F95B9D2
S113038090E0880F991F8E770E9481038C2F0E9422
S1130390810385B1846085B9CF91089595B19B7F20
S11303A095B990E0880F991F8E7780680E94810329
S11303B080E00E94810395B1946095B908956FE03F
S11303C081E00E94BB0108950E94DF016DE88AE28A
S11303D00E94BB016EE38BE20E94BB016EE18CE2E2
S11303E00E94BB0160E08DE20E94BB0160E485E1F4
S11303F00E94BB016DE381E10E94BB0184E10E9484
S1130400CE01982F937029F4682F636084E10E94D1
S1130410BB0108954F925F926F927F928F929F9249
S1130420AF92BF92CF92DF92EF92FF920F931F93FE
S1130430CF93DF93D82F7B01C42F59018C3029F03F
S11304408E3061F0912C812C10C00F2EF0E39F2E82
S1130450F02D0F2EF7E78F2EF02D07C06894992406
S113046094F80F2EF2E18F2EF02D84E00E94CE013D
S1130470682F6F7784E00E94BB018AE00E94CE015E
S1130480682F60688AE00E94BB0160E081E00E94FE
S1130490BB01412C512C32010CC0F701E40DF51DB8
S11304A0608189E00E94BB018FEF481A580A680AEC
S11304B0780A8C2F90E0A0E0B0E0481659066A064E
S11304C07B0658F36D2F81E00E94BB01DC3041F4C0
S11304D08DE00E94CE01682F60688DE00E94BB0110
S11304E00F2EF0EDCF2EF7E0DF2EE12CF12CF02DC6
S11304F084E00E94CE01C82FE1E0CE1AD108E108C1
S1130500F10829F080FD03C0892D8C2389F38DE047
S11305100E94CE01682F6F778DE00E94BB01CD2829
S1130520CE28CF2809F460C086E00E94CE018B71EA
S113053009F05CC0C821C0FD02C0C1E001C0C2E036
S1130540DC3009F054C08AE00E94CE01D82F8CE040
S11305500E94CE01282F2770A9F08D2F90E00197DB
S1130560880F991F880F991F880F991F820F911D5B
S1130570092E000CAA0BBB0BF80180839183A28384
S1130580B38311C08D2F90E0880F991F880F991F96
S1130590880F991F092E000CAA0BBB0BF80180834E
S11305A09183A283B383D11101C0D1E0D13108F08A
S11305B0D0E1C12CD12C76010DC085010C0D1D1D7F
S11305C089E00E94CE01F8018083FFEFCF1ADF0A91
S11305D0EF0AFF0A8D2F90E0A0E0B0E0C816D9061C
S11305E0EA06FB0650F303C0C3E001C0C3E08C2F4E
S11305F0DF91CF911F910F91FF90EF90DF90CF90FB
S1130600BF90AF909F908F907F906F905F904F902E
S11306100895EF92FF920F931F93CF93DF9300D02F
S113062000D0CDB7DEB7182F7B0167E08DE00E94C4
S1130630BB01F70110838E010F5F1F4F970141E04B
S1130640B7018CE00E940A02813051F449815A8139
S11306506B817C81403151056105710519F403C03A
S113066083E001C083E00F900F900F900F90DF9113
S1130670CF911F910F91FF90EF900895EF92FF9209
S11306800F931F93CF93DF9300D000D0CDB7DEB785
S11306907C0160E08DE00E94BB0183E9F701808367
S11306A080E281838E010F5F1F4F970142E0B70103
S11306B08CE00E940A02813091F407C0F701E90F2F
S11306C0F11D308123279F5F02C020E090E0943029
S11306D0A8F3F701E90FF11D9081291383E00F902E
S11306E00F900F900F90DF91CF911F910F91FF907A
S11306F0EF90089584B18C6284B98CB581658CBD0A
S113070008958EBD0DB407FEFDCF8EB508951F92DA
S11307100F920FB60F9211242F933F938F939F93B1
S1130720AF93BF93EF93FF93E4ECF1E08081918169
S11307302091C600DC01AE5BBE4F2C9301969183E1
S11307408083E2ECF1E0208131812F5F3F4F3183E0
S113075020838038910520F01092C5011092C401C5
S1130760FF91EF91BF91AF919F918F913F912F9105
S11307700F900FBE0F901F9018951F920F920FB6F7
S11307800F9211248F9381E0809300018F910F9039
S11307900FBE0F901F901895DC01CB01880F991F95
S11307A0AA1FBB1F880F991FAA1FBB1F9C01AD0165
S11307B0220F331F441F551F220F331F441F551F81
S11307C060E074E284EF90E00E942904BA01A90178
S11307D04150510961097109DB01CA0188279F70E1
S11307E0AA27BB27892F9A2FAB2FBB278093C5003D
S11307F04093C400E1ECF0E08081886D8083E2E402
S1130800F1E086E8DF011D928A95E9F70895909159
S113081000019923E1F3109200018093C60008952A
S11308200F931F93CF93DF938C01C0E0D0E0F801C6
S1130830EC0FFD1F80810E9407042196F801EC0F44
S1130840FD1F80818111F3CFDF91CF911F910F9113
S11308500895A1E21A2EAA1BBB1BFD010DC0AA1FFD
S1130860BB1FEE1FFF1FA217B307E407F50720F015
S1130870A21BB30BE40BF50B661F771F881F991F90
S11308801A9469F760957095809590959B01AC01D9
S1130890BD01CF010895AEE0B0E0E1E5F4E00C94D1
S11308A00C070D891E8986E08C831A8309838FEFD8
S11308B09FE79E838D83AE01475E5F4F6F89788D7E
S11308C0CE0101960E946D04EF81F885E00FF11FBF
S11308D010822E96E4E00C942807ABE0B0E0E3E746
S11308E0F4E00C94FE066C017B018A01FC01178282
S11308F01682838181FFCCC1CE0101963C01F601B1
S11309009381F70193FD859193FF81917F01882362
S113091009F4BAC1853239F493FD859193FF81912D
S11309207F01853229F4B60190E00E946406E7CF86
S1130930912C212C312CFFE1F315D8F08B3279F076
S113094038F4803279F08332A1F4232D20611DC064
S11309508D3261F0803369F4232D216016C0832D1C
S11309608260382EE32DE4603E2E2AC0F32DF86019
S11309701DC037FC2DC020ED280F2A3040F08E32E8
S1130980B9F436FC81C1232D2064322E19C036FE01
S113099006C08AE0989E200D1124922E11C0EAE030
S11309A02E9E200D1124222EF32DF0623F2E08C01E
S11309B08C3621F4832D8068382E02C0883641F4A9
S11309C0F70193FD859193FF81917F018111B3CF4D
S11309D0982F9F7D9554933028F40C5F1F4F9FE30D
S11309E099830DC0833631F0833771F0833509F074
S11309F059C021C0F801808189830E5F1F4F88246C
S1130A008394912C530113C02801F2E04F0E511C22
S1130A10F801A080B18036FE03C0692D70E002C0E9
S1130A206FEF7FEFC5010E9459064C018201F32D3F
S1130A30FF773F2E16C0280122E0420E511CF80118
S1130A40A080B18036FE03C0692D70E002C06FEF54
S1130A507FEFC5010E944E064C01F32DF0683F2E36
S1130A60820133FC1BC0822D90E088169906B0F4F5
S1130A70B60180E290E00E9464062A94F4CFF50166
S1130A8037FC859137FE81915F01B60190E00E94A9
S1130A90640621102A9421E0821A91088114910499
S1130AA071F7E8C0843611F0893641F5F80137FE54
S1130AB007C060817181828193810C5F1F4F08C0E0
S1130AC060817181072E000C880B990B0E5F1F4FFC
S1130AD0F32DFF763F2E97FF09C090958095709572
S1130AE061957F4F8F4F9F4FF0683F2E2AE030E093
S1130AF0A3010E94A006882E861845C0853731F4CC
S1130B00232D2F7EB22E2AE030E025C0932D997F2D
S1130B10B92E8F36C1F018F4883579F0B5C0803716
S1130B2019F0883721F0B0C0E92FE061BE2EB4FE81
S1130B300DC0FB2DF460BF2E09C034FE0AC0292F5E
S1130B402660B22E06C028E030E005C020E130E087
S1130B5002C020E132E0F801B7FE07C06081718174
S1130B60828193810C5F1F4F06C06081718180E098
S1130B7090E00E5F1F4FA3010E94A006882E8618E6
S1130B80FB2DFF773F2E36FE0DC0232D2E7FA22E88
S1130B90891458F434FE0BC032FC09C0832D8E7EB8
S1130BA0A82E05C0B82CA32C03C0B82C01C0B92CA6
S1130BB0A4FE0FC0FE01E80DF11D8081803321F4F5
S1130BC09A2D997EA92E09C0A2FE06C0B394B394AF
S1130BD004C08A2D867809F0B394A3FC11C0A0FE4A
S1130BE006C0B21488F4280C922C9B180EC0B214C0
S1130BF060F4B60180E290E00E946406B394F7CFFB
S1130C00B21418F42B1802C0982C212CA4FE10C086
S1130C10B60180E390E00E946406A2FE17C0A1FC26
S1130C2003C088E790E002C088E590E0B6010CC0FC
S1130C308A2D867859F0A1FE02C08BE201C080E2C1
S1130C40A7FC8DE2B60190E00E946406891438F492
S1130C50B60180E390E00E9464069A94F7CF8A94E8
S1130C60F301E80DF11D8081B60190E00E94640655
S1130C708110F5CF222009F442CEB60180E290E043
S1130C800E9464062A94F6CFF6018681978102C0F9
S1130C908FEF9FEF2B96E2E10C941A07FC0105906D
S1130CA0615070400110D8F7809590958E0F9F1F6A
S1130CB00895FC016150704001900110D8F78095AF
S1130CC090958E0F9F1F08950F931F93CF93DF93DB
S1130CD0FB01238121FD03C08FEF9FEF2CC022FF76
S1130CE016C046815781248135814217530744F445
S1130CF0A081B1819D012F5F3F4F318320838C936D
S1130D00268137812F5F3F4F3783268314C08B01A1
S1130D10EC01FB010084F185E02D0995892BE1F6B6
S1130D20D80116968D919C911797019617969C93CE
S1130D308E931697CE01DF91CF911F910F91089555
S1130D40FA01AA27283051F1203181F1E8946F93F8
S1130D506E7F6E5F7F4F8F4F9F4FAF4FB1E03ED09E
S1130D60B4E03CD0670F781F891F9A1FA11D680F3C
S1130D70791F8A1F911DA11D6A0F711D811D911D6F
S1130D80A11D20D009F468943F912AE0269F1124E4
S1130D903019305D3193DEF6CF010895462F477048
S1130DA0405D4193B3E00FD0C9F7F6CF462F4F70A3
S1130DB0405D4A3318F0495D31FD4052419302D001
S1130DC0A9F7EACFB4E0A6959795879577956795A7
S1130DD0BA95C9F700976105710508959B01AC01A7
S1130DE00A2E06945795479537952795BA95C9F7CE
S1130DF0620F731F841F951FA01D08952F923F92A9
S1130E004F925F926F927F928F929F92AF92BF9216
S1130E10CF92DF92EF92FF920F931F93CF93DF93C2
S1130E20CDB7DEB7CA1BDB0B0FB6F894DEBF0FBE1F
S1130E30CDBF09942A88398848885F846E847D846C
S1130E408C849B84AA84B984C884DF80EE80FD806E
S1130E500C811B81AA81B981CE0FD11D0FB6F894E4
S1110E60DEBF0FBECDBFED010895F894FFCFA5
S1130E6E01257800496E636F72726563742056654E
S1130E7E7273696F6E000A4D4652433532322069E1
S1130E8E732076657273696F6E20322E3000657230
S1130E9E726F720052464944205265616465720A4B
S1050EAE00003E
S9030000FC
