:100000000C9434000C9451000C9451000C94510049
:100010000C9451000C9451000C9451000C9451001C
:100020000C9451000C9451000C9451000C948F03CB
:100030000C9451000C9483030C9451000C945100C7
:100040000C9451000C9451000C94B2030C94510088
:100050000C94E8030C9451000C9451000C94510042
:100060000C9451000C94510011241FBECFEFD8E026
:10007000DEBFCDBF11E0A0E0B1E0EAE0F9E002C0F0
:1000800005900D92AA35B107D9F721E0AAE5B1E0B4
:1000900001C01D92A93EB207E1F70E94F6000C9440
:1000A00083040C9400000E949F010E9476030E942A
:1000B000E0010E94990384B18E7F84B984B18E7F60
:1000C00084B981E088B985B960E07BE480E090E0A4
:1000D0000E94F7032FEF89E698E12150804090407D
:1000E000E1F700C00000EBE5F1E0809104019091A0
:1000F0000501A0910601B091070180839183A2833D
:10010000B3838091000190910101A0910201B0910F
:10011000030184839583A683B78308950F931F9368
:10012000CF93DF938C01C0E0D0E00FC0BE01660F1B
:10013000771F660F771F655A7E4F44E050E0C80175
:100140000E947604892B31F02196C830D10570F3D6
:1001500080E001C081E0DF91CF911F910F91089560
:10016000CF93DF93CDB7DEB760970FB6F894DEBFBD
:100170000FBECDBF82E00E94CA01682F606282E09C
:100180000E94B70183E00E94CA01682F606883E083
:100190000E94B701BE016F5F7F4F82E50E94050399
:1001A0008130D1F4CE0101960E943A03813081F46E
:1001B000CE0101960E948E00882329F086E391E00B
:1001C0000E943B0409C085E491E00E943B0404C006
:1001D00083E591E00E943B042FEF83ED90E32150F3
:1001E00080409040E1F700C00000D4CF0E9453004F
:1001F00078940E94B0009BB19F7B9BB9662321F04D
:100200009BB190689BB903C09BB19F779BB92BB101
:1002100090E0880F991F922F917E892B8BB98BB11B
:1002200080628BB982E08A95F1F700C08BB18F7D37
:100230008BB908959BB190649BB99AB1917E9AB99C
:10024000882321F08BB180688BB903C08BB18F7785
:100250008BB98BB180628BB982E08A95F1F700C0CF
:1002600089B18E7190E0959587959BB19F7D9BB9E3
:100270009AB19E619AB99BB19F7B9BB90895CF9328
:10028000DF93C82FD62F82958F700E94FB006D2FB1
:100290008C2F8F700E94FB00DF91CF910895CF9338
:1002A000DF93C82F0E941A01D82FD295D07F8C2FB0
:1002B0000E941A018D2BDF91CF91089580E00E945A
:1002C0004F018823DCF308958AB18E6F8AB98FE5D8
:1002D0009AEE0197F1F700C0000060E083E00E9411
:1002E000FB008FE090E40197F1F700C0000060E0B0
:1002F00083E00E94FB008FE891E00197F1F700C0D6
:10030000000060E083E00E94FB0095EC9A95F1F715
:10031000000060E082E00E94FB0080E00E945E013D
:1003200060E088E20E943F0180E00E945E0160E0A0
:1003300088E00E943F0180E00E945E0108950E94D3
:10034000640160E081E00E943F0181E00E945E0163
:1003500060E086E00E943F0180E00E945E0160E074
:100360008EE00E943F0180E00E945E010895CF93DD
:10037000C62F95B19B7F95B990E0880F991F8E7716
:100380000E947D038C2F0E947D0385B1846085B916
:10039000CF91089595B19B7F95B990E0880F991FF3
:1003A0008E7780680E947D0380E00E947D0395B176
:1003B000946095B908956FE081E00E94B7010895B7
:1003C0000E94DB016DE88AE20E94B7016EE38BE2D6
:1003D0000E94B7016EE18CE20E94B70160E08DE2FD
:1003E0000E94B70160E485E10E94B7016DE381E1FD
:1003F0000E94B70184E10E94CA01982F937029F4EA
:10040000682F636084E10E94B70108954F925F9264
:100410006F927F928F929F92AF92BF92CF92DF9214
:10042000EF92FF920F931F93CF93DF93D82F7B010F
:10043000C42F59018C3029F08E3061F0912C812C21
:1004400010C00F2EF0E39F2EF02D0F2EF7E78F2E0A
:10045000F02D07C06894992494F80F2EF2E18F2EA6
:10046000F02D84E00E94CA01682F6F7784E00E941B
:10047000B7018AE00E94CA01682F60688AE00E9482
:10048000B70160E081E00E94B701412C512C32019C
:100490000CC0F701E40DF51D608189E00E94B701F1
:1004A0008FEF481A580A680A780A8C2F90E0A0E06B
:1004B000B0E0481659066A067B0658F36D2F81E0B6
:1004C0000E94B701DC3041F48DE00E94CA01682F20
:1004D00060688DE00E94B7010F2EF0EDCF2EF7E09F
:1004E000DF2EE12CF12CF02D84E00E94CA01C82FF0
:1004F000E1E0CE1AD108E108F10829F080FD03C03F
:10050000892D8C2389F38DE00E94CA01682F6F77B3
:100510008DE00E94B701CD28CE28CF2809F460C015
:1005200086E00E94CA018B7109F05CC0C821C0FD41
:1005300002C0C1E001C0C2E0DC3009F054C08AE072
:100540000E94CA01D82F8CE00E94CA01282F277070
:10055000A9F08D2F90E00197880F991F880F991FA0
:10056000880F991F820F911D092E000CAA0BBB0B3F
:10057000F80180839183A283B38311C08D2F90E013
:10058000880F991F880F991F880F991F092E000C3B
:10059000AA0BBB0BF80180839183A283B383D11193
:1005A00001C0D1E0D13108F0D0E1C12CD12C7601CD
:1005B0000DC085010C0D1D1D89E00E94CA01F801C6
:1005C0008083FFEFCF1ADF0AEF0AFF0A8D2F90E03A
:1005D000A0E0B0E0C816D906EA06FB0650F303C057
:1005E000C3E001C0C3E08C2FDF91CF911F910F9129
:1005F000FF90EF90DF90CF90BF90AF909F908F9043
:100600007F906F905F904F900895EF92FF920F93BD
:100610001F93CF93DF9300D000D0CDB7DEB7182F54
:100620007B0167E08DE00E94B701F70110838E0126
:100630000F5F1F4F970141E0B7018CE00E94060257
:10064000813051F449815A816B817C81403151055F
:100650006105710519F403C083E001C083E00F90C8
:100660000F900F900F90DF91CF911F910F91FF90FE
:10067000EF900895EF92FF920F931F93CF93DF9324
:1006800000D000D0CDB7DEB77C0160E08DE00E94E5
:10069000B70183E9F701808380E281838E010F5FD8
:1006A0001F4F970142E0B7018CE00E9406028130A3
:1006B00091F407C0F701E90FF11D308123279F5FF7
:1006C00002C020E090E09430A8F3F701E90FF11D9B
:1006D0009081291383E00F900F900F900F90DF917E
:1006E000CF911F910F91FF90EF90089584B18C628C
:1006F00084B98CB581658CBD08958EBD0DB407FE9F
:10070000FDCF8EB508951F920F920FB60F92112450
:1007100010925A010F900FBE0F901F9018951F92C4
:100720000F920FB60F9211240F900FBE0F901F90D3
:10073000189584B1826084B983E080936F008CE95E
:10074000809387008FE38093860087E08093890001
:100750008FEC8093880082E8809380008AE1809308
:10076000810008951F920F920FB60F9211242F93BC
:100770003F938F939F93AF93BF93EF93FF93E5EED8
:10078000F1E0808191812091C600DC01AD59BE4F1E
:100790002C93019691838083E3EEF1E020813181F7
:1007A0002F5F3F4F318320838038910520F01092D6
:1007B000E6011092E501FF91EF91BF91AF919F91FA
:1007C0008F913F912F910F900FBE0F901F90189512
:1007D0001F920F920FB60F9211248F9381E0809396
:1007E00008018F910F900FBE0F901F901895DC019C
:1007F000CB01880F991FAA1FBB1F880F991FAA1F23
:10080000BB1F9C01AD01220F331F441F551F220F38
:10081000331F441F551F60E074E284EF90E00E9494
:100820005404BA01A9014150510961097109DB0160
:10083000CA0188279F70AA27BB27892F9A2FAB2F21
:10084000BB278093C5004093C400E1ECF0E08081B9
:10085000886D8083E3E6F1E086E8DF011D928A95EA
:10086000E9F70895909108019923E1F310920801A6
:100870008093C60008950F931F93CF93DF938C014D
:10088000C0E0D0E0F801EC0FFD1F80810E9432042F
:100890002196F801EC0FFD1F80818111F3CFDF91CC
:1008A000CF911F910F910895A1E21A2EAA1BBB1B95
:1008B000FD010DC0AA1FBB1FEE1FFF1FA217B3072C
:1008C000E407F50720F0A21BB30BE40BF50B661F42
:1008D000771F881F991F1A9469F760957095809506
:1008E00090959B01AC01BD01CF010895FB01DC0196
:1008F00004C08D910190801921F441505040C8F7F7
:0A090000881B990B0895F894FFCFAF
:10090A0040F88C1EAF51DA0201257800496E636FF8
:10091A0072726563742056657273696F6E000A4D50
:10092A004652433532322069732076657273696F95
:10093A006E20322E30004163636573732047726103
:10094A006E746564004163636573732044656E6900
:0A095A006564006572726F720000A0
:00000001FF
