:100000000C9434000C9451000C9451000C94510049
:100010000C9451000C9451000C9451000C9451001C
:100020000C9451000C9451000C9451000C94A204B7
:100030000C9451000C9496040C9451000C945100B3
:100040000C9451000C9451000C94F6040C94510043
:100050000C942C050C9451000C9451000C945100FC
:100060000C9451000C94510011241FBECFEFD8E026
:10007000DEBFCDBF12E0A0E0B1E0E4EFFFE002C0E0
:1000800005900D92AC30B107D9F722E0ACE0B2E0B8
:1000900001C01D92AC39B207E1F70E94CE010C9469
:1000A000F8070C9400000E9476020E947D040E94D2
:1000B000E7020E94AC0484B18E7F84B984B18E7F44
:1000C00084B981E088B985B9EEE0F2E0809112014F
:1000D00090911301A0911401B09115018083918337
:1000E000A283B38380910E0190910F01A091100122
:1000F000B091110184839583A683B783789464EBD0
:1001000070E086E990E00E94C50408950F931F9364
:10011000CF93DF938C01C0E0D0E00FC0BE01660F2B
:10012000771F660F771F625F7D4F44E050E0C80184
:100130000E944407892B31F02196C830D10570F315
:1001400080E001C081E0DF91CF911F910F91089570
:10015000CF93DF93CDB7DEB760970FB6F894DEBFCD
:100160000FBECDBF82E00E94D102682F606282E0A4
:100170000E94BE0283E00E94D102682F606883E083
:100180000E94BE02BE016F5F7F4F82E50E940C0499
:10019000813071F4CE0101960E944104813091F4C6
:1001A000CE0101960E948600882369F081E00BC091
:1001B0002FEF83ED90E3215080409040E1F700C0A5
:1001C0000000E0CF80E060960FB6F894DEBF0FBE6F
:1001D000CDBFDF91CF91089520E031E040E850E0BD
:1001E00061E070E084E491E00E948D070E94A80025
:1001F0008823E1F32FEF31EE84E02150304080403E
:10020000E1F700C0000020E031E04AE050E061E0AA
:1002100070E085EC91E00E948D0760E071E08AE07B
:1002200090E00E94510720E031E043E150E061E0BE
:1002300070E080ED91E00E948D0700E010E0C1E0E9
:10024000D0E030995FC0C130D105E1F49FEF23EDDC
:1002500030E3915020403040E1F700C0000060E002
:1002600071E08AE090E00E94510720E031E04CE02C
:1002700050E061E070E084EE91E00E948D0700E4C0
:1002800016E03FC0C230D105E1F460E071E08AE0E1
:1002900090E00E94510720E031E04CE050E061E046
:1002A00070E081EF91E00E948D078FEF93ED20E3E6
:1002B000815090402040E1F700C0000000E41FE1C1
:1002C00020C0C330D105E9F460E071E08AE090E03D
:1002D0000E94510720E031E04DE050E061E070E025
:1002E0008EEF91E00E948D073FEF83ED90E3315058
:1002F00080409040E1F700C0000000E81EE3C0E04D
:10030000D0E0219618999DCF209709F49ACF011536
:10031000110509F496CF2FEF33ED80E321503040E3
:100320008040E1F700C0000066E970E089E690E0F7
:100330000E94C504003496E0190751F42FEF3FE105
:100340008EE4215030408040E1F700C000001EC024
:1003500000349FE1190769F424E535E885E491E06C
:100360002150304080409040D9F700C000C00000CC
:100370000DC000381E4351F43AEA8AE09BE822E0BF
:100380003150804090402040D9F7000064EB70E08D
:1003900086E990E00E94C5040E94EC000E94530090
:1003A0000E94EC009BB19F7B9BB9662321F09BB11F
:1003B00090689BB903C09BB19F779BB92BB190E02C
:1003C000880F991F922F917E892B8BB98BB18062F8
:1003D0008BB982E08A95F1F700C08BB18F7D8BB924
:1003E00008959BB190649BB99AB1917E9AB9882384
:1003F00021F08BB180688BB903C08BB18F778BB93B
:100400008BB180628BB982E08A95F1F700C089B127
:100410008E7190E0959587959BB19F7D9BB99AB120
:100420009E619AB99BB19F7B9BB90895CF93DF934F
:10043000C82FD62F82958F700E94D2016D2F8C2FDE
:100440008F700E94D201DF91CF910895CF93DF93F7
:10045000C82F0E94F101D82FD295D07F8C2F0E94F7
:10046000F1018D2BDF91CF91089580E00E9426024B
:100470008823DCF308958AB18E6F8AB98FE59AEEEE
:100480000197F1F700C0000060E083E00E94D20114
:100490008FE090E40197F1F700C0000060E083E096
:1004A0000E94D2018FE891E00197F1F700C00000AF
:1004B00060E083E00E94D20195EC9A95F1F700008C
:1004C00060E082E00E94D20180E00E94350260E09C
:1004D00088E20E94160280E00E94350260E088E017
:1004E0000E94160280E00E94350208950E943B029D
:1004F00060E081E00E94160281E00E94350260E027
:1005000086E00E94160280E00E94350260E08EE0E4
:100510000E94160280E00E9435020895CF93C82FF2
:1005200080910C028823C9F0CA30B9F080E00E94A3
:10053000350260E081E00E94160280E00E943502F0
:1005400060E082E00E94160281E00E94350260E0D5
:1005500080E80E94160210920C02CA3021F481E059
:1005600080930C0207C080E00E94350261E08C2F6E
:100570000E94160280E090E0CF910895CF93C62F9D
:1005800095B19B7F95B990E0880F991F8E770E9457
:1005900084048C2F0E94840485B1846085B9CF9136
:1005A000089595B19B7F95B990E0880F991F8E773C
:1005B00080680E94840480E00E94840495B1946065
:1005C00095B908956FE081E00E94BE0208950E94EF
:1005D000E2026DE88AE20E94BE026EE38BE20E94B4
:1005E000BE026EE18CE20E94BE0260E08DE20E94DB
:1005F000BE0260E485E10E94BE026DE381E10E94DB
:10060000BE0284E10E94D102982F937029F4682FD2
:10061000636084E10E94BE0208954F925F926F92E0
:100620007F928F929F92AF92BF92CF92DF92EF9282
:10063000FF920F931F93CF93DF93D82F7B01C42F8B
:1006400059018C3029F08E3061F0912C812C10C032
:100650000F2EF0E39F2EF02D0F2EF7E78F2EF02DAB
:1006600007C06894992494F80F2EF2E18F2EF02D94
:1006700084E00E94D102682F6F7784E00E94BE025E
:100680008AE00E94D102682F60688AE00E94BE0260
:1006900060E081E00E94BE02412C512C32010CC06E
:1006A000F701E40DF51D608189E00E94BE028FEF25
:1006B000481A580A680A780A8C2F90E0A0E0B0E047
:1006C000481659066A067B0658F36D2F81E00E9492
:1006D000BE02DC3041F48DE00E94D102682F6068D8
:1006E0008DE00E94BE020F2EF0EDCF2EF7E0DF2E40
:1006F000E12CF12CF02D84E00E94D102C82FE1E022
:10070000CE1AD108E108F10829F080FD03C0892D37
:100710008C2389F38DE00E94D102682F6F778DE0E2
:100720000E94BE02CD28CE28CF2809F460C086E002
:100730000E94D1028B7109F05CC0C821C0FD02C0CB
:10074000C1E001C0C2E0DC3009F054C08AE00E9480
:10075000D102D82F8CE00E94D102282F2770A9F057
:100760008D2F90E00197880F991F880F991F880F90
:10077000991F820F911D092E000CAA0BBB0BF801CB
:1007800080839183A283B38311C08D2F90E0880F63
:10079000991F880F991F880F991F092E000CAA0B0B
:1007A000BB0BF80180839183A283B383D11101C075
:1007B000D1E0D13108F0D0E1C12CD12C76010DC0AF
:1007C00085010C0D1D1D89E00E94D102F801808376
:1007D000FFEFCF1ADF0AEF0AFF0A8D2F90E0A0E0AB
:1007E000B0E0C816D906EA06FB0650F303C0C3E022
:1007F00001C0C3E08C2FDF91CF911F910F91FF902B
:10080000EF90DF90CF90BF90AF909F908F907F90B0
:100810006F905F904F900895EF92FF920F931F9308
:10082000CF93DF9300D000D0CDB7DEB7182F7B0178
:1008300067E08DE00E94BE02F70110838E010F5F1A
:100840001F4F970141E0B7018CE00E940D038130FA
:1008500051F449815A816B817C8140315105610598
:10086000710519F403C083E001C083E00F900F907D
:100870000F900F90DF91CF911F910F91FF90EF900C
:100880000895EF92FF920F931F93CF93DF9300D0C1
:1008900000D0CDB7DEB77C0160E08DE00E94BE02E3
:1008A00083E9F701808380E281838E010F5F1F4F10
:1008B000970142E0B7018CE00E940D03813091F472
:1008C00007C0F701E90FF11D308123279F5F02C0A8
:1008D00020E090E09430A8F3F701E90FF11D90813A
:1008E000291383E00F900F900F900F90DF91CF911D
:1008F0001F910F91FF90EF90089584B18C6284B99D
:100900008CB581658CBD08958EBD0DB407FEFDCFFD
:100910008EB5089521E020930D0220910D02211142
:10092000FCCF909389008093880008951F920F92C6
:100930000FB60F92112410920D020F900FBE0F9060
:100940001F9018951F920F920FB60F9211240F90BF
:100950000FBE0F901F90189584B1826084B983E018
:1009600080936F008CE9809387008FE380938600EB
:1009700087E0809389008FEC8093880082E88093E1
:1009800080008AE1809381000895CF92DF92EF92F8
:10099000FF92CF93DF93EB01BC0180E090E00E94D7
:1009A00049066B017C01BE0180E090E00E9449068F
:1009B0009B01AC01C701B6010E94A80520E030E808
:1009C0004BE355E40E94D70620E030EE49EF54E4B3
:1009D0000E943C050E941A06CB010E948A04DF9106
:1009E000CF91FF90EF90DF90CF9008951F920F92DC
:1009F0000FB60F9211242F933F938F939F93AF9332
:100A0000BF93EF93FF93E8E9F2E080819181209119
:100A1000C600DC01AA5EBD4F2C93019691838083B2
:100A2000E6E9F2E0208131812F5F3F4F318320835F
:100A30008038910520F01092990210929802FF914F
:100A4000EF91BF91AF919F918F913F912F910F9017
:100A50000FBE0F901F9018951F920F920FB60F9216
:100A600011248F9381E0809316018F910F900FBE18
:100A70000F901F9018955058BB27AA270E94530526
:100A80000C949D060E948F0638F00E94960620F076
:100A900039F49F3F19F426F40C948C060EF4E0957B
:100AA000E7FB0C948606E92F0E94AE0658F3BA17AE
:100AB000620773078407950720F079F4A6F50C9474
:100AC000D0060EF4E0950B2EBA2FA02D0B01B90124
:100AD00090010C01CA01A0011124FF27591B99F0B4
:100AE000593F50F4503E68F11A16F040A22F232FC0
:100AF000342F4427585FF3CF469537952795A79510
:100B0000F0405395C9F77EF41F16BA0B620B730BB6
:100B1000840BBAF09150A1F0FF0FBB1F661F771F27
:100B2000881FC2F70EC0BA0F621F731F841F48F4DC
:100B3000879577956795B795F7959E3F08F0B0CF65
:100B40009395880F08F09927EE0F9795879508954C
:100B50000E94BC050C949D060E94960658F00E94C7
:100B60008F0640F029F45F3F29F00C94860651115E
:100B70000C94D1060C948C060E94AE0668F399235F
:100B8000B1F3552391F3951B550BBB27AA27621789
:100B90007307840738F09F5F5F4F220F331F441F96
:100BA000AA1FA9F335D00E2E3AF0E0E832D09150CA
:100BB0005040E695001CCAF72BD0FE2F29D0660FB7
:100BC000771F881FBB1F261737074807AB07B0E8FA
:100BD00009F0BB0B802DBF01FF2793585F4F3AF000
:100BE0009E3F510578F00C9486060C94D1065F3F29
:100BF000E4F3983ED4F3869577956795B795F79586
:100C00009F5FC9F7880F911D9695879597F908956D
:100C1000E1E0660F771F881FBB1F62177307840709
:100C2000BA0720F0621B730B840BBA0BEE1F88F718
:100C3000E09508950E94B60688F09F5798F0B92F66
:100C40009927B751B0F0E1F0660F771F881F991F01
:100C50001AF0BA95C9F714C0B13091F00E94D006CD
:100C6000B1E008950C94D006672F782F8827B85FDD
:100C700039F0B93FCCF3869577956795B395D9F759
:100C80003EF490958095709561957F4F8F4F9F4F63
:100C90000895E89409C097FB3EF49095809570956F
:100CA00061957F4F8F4F9F4F9923A9F0F92F96E9B8
:100CB000BB279395F695879577956795B795F1112D
:100CC000F8CFFAF4BB0F11F460FF1BC06F5F7F4FCA
:100CD0008F4F9F4F16C0882311F096E911C07723DC
:100CE00021F09EE8872F762F05C0662371F096E8E5
:100CF000862F70E060E02AF09A95660F771F881FB4
:100D0000DAF7880F9695879597F9089597F99F6771
:100D100080E870E060E008959FEF80EC0895002483
:100D20000A941616170618060906089500240A9450
:100D300012161306140605060895092E0394000CD6
:100D400011F4882352F0BB0F40F4BF2B11F460FF65
:100D500004C06F5F7F4F8F4F9F4F089557FD90588E
:100D6000440F551F59F05F3F71F04795880F97FB6F
:100D7000991F61F09F3F79F0879508951216130629
:100D80001406551FF2CF4695F1DF08C01616170658
:100D90001806991FF1CF869571056105089408958D
:100DA000E894BB2766277727CB0197F908950E941F
:100DB000EA060C949D060E948F0638F00E94960663
:100DC00020F0952311F00C9486060C948C061124C7
:100DD0000C94D1060E94AE0670F3959FC1F3950F57
:100DE00050E0551F629FF001729FBB27F00DB11DAF
:100DF000639FAA27F00DB11DAA1F649F6627B00D3F
:100E0000A11D661F829F2227B00DA11D621F739F27
:100E1000B00DA11D621F839FA00D611D221F749F35
:100E20003327A00D611D231F849F600D211D822F7C
:100E3000762F6A2F11249F5750409AF0F1F08823A3
:100E40004AF0EE0FFF1FBB1F661F771F881F9150D0
:100E50005040A9F79E3F510580F00C9486060C94F3
:100E6000D1065F3FE4F3983ED4F386957795679576
:100E7000B795F795E7959F5FC1F7FE2B880F911DFA
:100E80009695879597F90895FB01DC0104C08D9133
:100E90000190801921F441505040C8F7881B990BEC
:100EA00008950F931F93CF93DF93FB01238121FDBF
:100EB00003C08FEF9FEF2CC022FF16C046815781E1
:100EC000248135814217530744F4A081B1819D01EB
:100ED0002F5F3F4F318320838C93268137812F5F93
:100EE0003F4F3783268314C08B01EC01FB01008444
:100EF000F185E02D0995892BE1F6D80116968D91A3
:100F00009C911797019617969C938E931697CE01F6
:100F1000DF91CF911F910F910895A0E0B0E0E3E938
:100F2000F7E00C94C7075B014A017901D9011396D8
:100F30002C9121FF1DC0C0E0D0E0C815D905D9F023
:100F40008C016C01CA0CDB1CC8010C151D0571F06D
:100F50000F5F1F4FD7011896ED91FC911997B701BC
:100F6000DC018C910995892B79F305C02196E5CF99
:100F700080E090E001C0CE01CDB7DEB7ECE00C948C
:100F8000E3072F923F924F925F926F927F928F92E0
:100F90009F92AF92BF92CF92DF92EF92FF920F9308
:100FA0001F93CF93DF93CDB7DEB7CA1BDB0B0FB612
:100FB000F894DEBF0FBECDBF09942A8839884888CF
:100FC0005F846E847D848C849B84AA84B984C88465
:100FD000DF80EE80FD800C811B81AA81B981CE0F5C
:100FE000D11D0FB6F894DEBF0FBECDBFED01089541
:040FF000F894FFCFA3
:100FF40000000002000000008E020000000040F823
:101004008C1EAF51DA0201257800496E636F72724B
:101014006563742056657273696F6E000A4D46529B
:10102400433532322069732076657273696F6E209E
:10103400322E300061616161616161616161616190
:10104400616161616161616161616161616161618C
:10105400616161616161616161614261616161619B
:10106400616161616161616161616161616161616C
:10107400616161616161616161616161616161615C
:10108400616161616161616161616161616161614C
:10109400616161616161616161614261616161615B
:1010A400616161616161616161616161616161612C
:1010B4006161616100796F757220636172642E00F1
:1010C4005573652074686520746F7020627574743C
:1010D4006F6E2E004372656174696E653A203167E4
:1010E400004372656174696E653A20356700437226
:0C10F400656174696E653A203130670058
:00000001FF
