S01E0000456D6265646465642D46696E616C2D50726F6A6563742E73726563E1
S11300000C9434000C9451000C9451000C94510045
S11300100C9451000C9451000C9451000C94510018
S11300200C9451000C9451000C9451000C94510008
S11300300C9451000C9451000C9451000C945100F8
S11300400C9451000C9451000C9451000C945100E8
S11300500C9451000C9451000C9451000C945100D8
S11300600C9451000C94510011241FBECFEFD8E022
S1130070DEBFCDBF11E0A0E0B1E0E2ECF4E002C0ED
S113008005900D92A034B107D9F721E0A0E4B1E0C6
S113009001C01D92A134B207E1F70E945A000C94EA
S11300A05F020C9400000E9450010E94E7010E942C
S11300B0C10108950E94530020E031E04BE050E07C
S11300C061E070E08EE091E00E94F4012FEF83ED97
S11300D090E3215080409040E1F700C0000087E3A6
S11300E00E94AB018239A9F420E031E04CE050E0F9
S11300F061E070E08AE191E00E94F40120E031E0E7
S113010048E050E061E070E087E291E00E94F40191
S113011022C080598230A8F420E031E04CE050E065
S113012061E070E08AE191E00E94F40120E031E0B6
S113013048E050E061E070E087E291E00E94F40161
S11301400AC020E031E04FE050E061E070E080E37D
S113015091E00E94F401FFCF9BB19F7B9BB9662382
S113016021F09BB190689BB903C09BB19F779BB969
S11301702BB190E0880F991F922F917E892B8BB918
S11301808BB180628BB982E08A95F1F700C08BB1A4
S11301908F7D8BB908959BB190649BB99AB1917E80
S11301A09AB9882321F08BB180688BB903C08BB1D5
S11301B08F778BB98BB180628BB982E08A95F1F726
S11301C000C089B18E7190E0959587959BB19F7D14
S11301D09BB99AB19E619AB99BB19F7B9BB90895D3
S11301E0CF93DF93C82FD62F82958F700E94AC00D7
S11301F06D2F8C2F8F700E94AC00DF91CF910895EA
S1130200CF93DF93C82F0E94CB00D82FD295D07FF5
S11302108C2F0E94CB008D2BDF91CF91089580E02D
S11302200E9400018823DCF308958AB18E6F8AB995
S11302308FE59AEE0197F1F700C0000060E083E0DB
S11302400E94AC008FE090E40197F1F700C0000039
S113025060E083E00E94AC008FE891E00197F1F741
S113026000C0000060E083E00E94AC0095EC9A9529
S1130270F1F7000060E082E00E94AC0080E00E94A0
S11302800F0160E088E20E94F00080E00E940F010C
S113029060E088E00E94F00080E00E940F01089571
S11302A00E94150160E081E00E94F00081E00E945C
S11302B00F0160E086E00E94F00080E00E940F01E0
S11302C060E08EE00E94F00080E00E940F0108953B
S11302D0CF93C82F809140018823C9F0CA30B9F068
S11302E080E00E940F0160E081E00E94F00080E065
S11302F00E940F0160E082E00E94F00081E00E9411
S11303000F0160E080E80E94F00010924001CA30C2
S113031021F481E08093400107C080E00E940F0136
S113032061E08C2F0E94F00080E090E0CF9108956E
S1130330CF93C62F95B19B7F95B990E0880F991FF5
S11303408E770E94EE018C2F0E94EE0185B18460AD
S113035085B9CF91089595B19B7F95B990E0880FA9
S1130360991F8E7780680E94EE0180E00E94EE0162
S113037095B1946095B908956FE081E00E94980169
S113038008950E94BC016DE88AE20E9498016EE320
S11303908BE20E9498016EE18CE20E94980160E079
S11303A08DE20E94980160E485E10E9498016DE36A
S11303B081E10E94980184E10E94AB01982F93701F
S11303C029F4682F636084E10E949801089584B140
S11303D08C6284B98CB581658CBD08958EBD0DB4D5
S11303E007FEFDCF8EB50895A0E0B0E0EAEFF1E09E
S11303F00C942E025B014A017901D90113962C91C8
S113040021FF1DC0C0E0D0E0C815D905D9F08C018A
S11304106C01CA0CDB1CC8010C151D0571F00F5FC3
S11304201F4FD7011896ED91FC911997B701DC0184
S11304308C910995892B79F305C02196E5CF80E04D
S113044090E001C0CE01CDB7DEB7ECE00C944A02D7
S11304502F923F924F925F926F927F928F929F92D0
S1130460AF92BF92CF92DF92EF92FF920F931F93BE
S1130470CF93DF93CDB7DEB7CA1BDB0B0FB6F8946F
S1130480DEBF0FBECDBF09942A88398848885F84AF
S11304906E847D848C849B84AA84B984C884DF8020
S11304A0EE80FD800C811B81AA81B981CE0FD11D04
S11304B00FB6F894DEBF0FBECDBFED010895F894DA
S10504C0FFCF68
S11304C20000000200000000680100000000524623
S11304D2494420526561646572004D494641524562
S11304E22052433532320044657465637465640096
S11304F24E6F2072656164657220666F756E64006A
S9030000FC
