S01E0000456D6265646465642D46696E616C2D50726F6A6563742E73726563E1
S11300000C9434000C9451000C9451000C94510045
S11300100C9451000C9451000C9451000C94510018
S11300200C9451000C9451000C9451000C942A052A
S11300300C9451000C941E050C9451000C94510026
S11300400C9451000C9451000C947E050C945100B6
S11300500C94B4050C9451000C9451000C94510070
S11300600C9451000C94510011241FBECFEFD8E022
S1130070DEBFCDBF11E0A0E0B1E0E4E0F1E102C0F9
S113008005900D92A03EB107D9F722E0A0EEB1E0B1
S113009001C01D92A037B207E1F70E944C020C94F4
S11300A080080C9400000E94F4020E9405050E943E
S11300B06F030E94340584B18E7F84B984B18E7F2E
S11300C084B981E088B985B9E2EEF1E0809112014A
S11300D090911301A0911401B09115018083918333
S11300E0A283B38380910E0190910F01A09110011E
S11300F0B091110184839583A683B783789464EBCC
S113010070E086E990E00E944D05089581E00E9428
S1130110B30260E080EC0E94940208950F931F9351
S1130120CF93DF938C01C0E0D0E00FC0BE01660F17
S1130130771F660F771F6E517E4F44E050E0C80171
S11301400E94CC07892B31F02196C830D10570F379
S113015080E001C081E0DF91CF911F910F9108955C
S11301601F93CF93DF93CDB7DEB760970FB6F894A4
S1130170DEBF0FBECDBF82E00E945903682F6062CC
S113018082E00E94460383E00E945903682F60685E
S113019083E00E944603BE016F5F7F4F82E50E94A9
S11301A09404813031F5CE0101960E94C904813056
S11301B051F5CE0101960E948E00182F882371F00C
S11301C00E94860020E031E040E150E061E070E010
S11301D084E491E00E94150811E016C020E031E0AB
S11301E04FE050E061E070E085E591E00E94150881
S11301F00BC02FEF83ED90E3215080409040E1F756
S113020000C00000C8CF10E0812F60960FB6F894AC
S1130210DEBF0FBECDBFDF91CF911F91089520E0C7
S113022031E04FE050E061E070E085E691E00E944B
S113023015080E94B0008823E1F32FEF38E08DE326
S1130240215030408040E1F700C0000020E031E060
S113025043E050E061E070E085E791E00E9415081A
S113026020E031E043E050E061E070E085E791E0B8
S11302700E94150820E031E04FE050E061E070E0BA
S113028089E791E00E9415080E94860020E031E091
S113029040E150E061E070E089E891E00E941508D7
S11302A000E010E0C1E0D0E0309995C0C130D10544
S11302B071F560E071E08AE090E00E94D90760E0A7
S11302C071E08AE090E00E94D90720E031E040E14B
S11302D050E061E070E08AE991E00E9415080E9414
S11302E0860020E031E040E150E061E070E08BEA1C
S11302F091E00E9415089FEF23EC39E091502040D3
S11303003040E1F700C0000000E416E063C0C230F2
S1130310D10571F560E071E08AE090E00E94D907B0
S113032060E071E08AE090E00E94D90720E031E0CB
S113033040E150E061E070E08CEB91E00E94150830
S11303400E94860020E031E040E150E061E070E08E
S11303508BEA91E00E9415088FEF93EC29E081501D
S113036090402040E1F700C0000000E41FE132C0EB
S1130370C330D10579F560E071E08AE090E00E9435
S1130380D90760E071E08AE090E00E94D90720E09C
S113039031E041E150E061E070E08DEC91E00E94D9
S11303A015080E94860020E031E040E150E061E061
S11303B070E08BEA91E00E9415083FEF83EC99E02E
S11303C0315080409040E1F700C0000000E81EE397
S11303D0C0E0D0E02196189967CF209709F464CF44
S11303E00115110509F460CF2FEF33ED80E321509F
S11303F030408040E1F700C0000066E970E089E623
S113040090E00E944D05003496E0190751F42FEF57
S113041039E78FE3215030408040E1F700C000000D
S11304201FC000349FE1190769F424E53CE788E024
S113043091E02150304080409040D9F700C000C086
S113044000000EC000381E4359F43FEF8FEE99E4CC
S113045022E03150804090402040D9F700C0000095
S113046064EB70E086E990E00E944D0520E031E005
S113047043E050E061E070E085E791E00E941508F8
S113048020E031E043E050E061E070E085E791E096
S11304900E9415080E940F010E9453000E940F0140
S11304A09BB19F7B9BB9662321F09BB190689BB95C
S11304B003C09BB19F779BB92BB190E0880F991F24
S11304C0922F917E892B8BB98BB180628BB982E09C
S11304D08A95F1F700C08BB18F7D8BB908959BB1DC
S11304E090649BB99AB1917E9AB9882321F08BB11B
S11304F080688BB903C08BB18F778BB98BB1806265
S11305008BB982E08A95F1F700C089B18E7190E0D1
S1130510959587959BB19F7D9BB99AB19E619AB938
S11305209BB19F7B9BB90895CF93DF93C82FD62FA0
S113053082958F700E9450026D2F8C2F8F700E94B5
S11305405002DF91CF910895CF93DF93C82F0E947B
S11305506F02D82FD295D07F8C2F0E946F028D2BE3
S1130560DF91CF91089580E00E94A4028823DCF3F8
S113057008958AB18E6F8AB98FE59AEE0197F1F7E3
S113058000C0000060E083E00E9450028FE090E42D
S11305900197F1F700C0000060E083E00E94500280
S11305A08FE891E00197F1F700C0000060E083E07C
S11305B00E94500295EC9A95F1F7000060E082E009
S11305C00E94500280E00E94B30260E088E20E9430
S11305D0940280E00E94B30260E088E00E949402EA
S11305E080E00E94B30208950E94B90260E081E0B5
S11305F00E94940281E00E94B30260E086E00E94BF
S1130600940280E00E94B30260E08EE00E949402B3
S113061080E00E94B3020895CF93C82F8091E00137
S11306208230C8F0CA30B9F080E00E94B30260E0C2
S113063081E00E94940280E00E94B30260E082E0C4
S11306400E94940281E00E94B30260E080E80E946C
S113065094021092E001CA3071F48091E0018F5F3E
S11306608093E001813071F40E94B30260E080EC79
S11306700E94940207C080E00E94B30261E08C2FC4
S11306800E94940280E090E0CF910895CF93C62F0A
S113069095B19B7F95B990E0880F991F8E770E9442
S11306A00C058C2F0E940C0585B1846085B9CF910F
S11306B0089595B19B7F95B990E0880F991F8E7727
S11306C080680E940C0580E00E940C0595B194603E
S11306D095B908956FE081E00E94460308950E9451
S11306E06A036DE88AE20E9446036EE38BE20E948D
S11306F046036EE18CE20E94460360E08DE20E94B4
S1130700460360E485E10E9446036DE381E10E94B3
S1130710460384E10E945903982F937029F4682FAB
S1130720636084E10E94460308954F925F926F9242
S11307307F928F929F92AF92BF92CF92DF92EF926D
S1130740FF920F931F93CF93DF93D82F7B01C42F76
S113075059018C3029F08E3061F0912C812C10C01D
S11307600F2EF0E39F2EF02D0F2EF7E78F2EF02D96
S113077007C06894992494F80F2EF2E18F2EF02D7F
S113078084E00E945903682F6F7784E00E94460337
S11307908AE00E945903682F60688AE00E94460339
S11307A060E081E00E944603412C512C32010CC0D0
S11307B0F701E40DF51D608189E00E9446038FEF87
S11307C0481A580A680A780A8C2F90E0A0E0B0E032
S11307D0481659066A067B0658F36D2F81E00E947D
S11307E04603DC3041F48DE00E945903682F6068B1
S11307F08DE00E9446030F2EF0EDCF2EF7E0DF2EA2
S1130800E12CF12CF02D84E00E945903C82FE1E083
S1130810CE1AD108E108F10829F080FD03C0892D22
S11308208C2389F38DE00E945903682F6F778DE044
S11308300E944603CD28CE28CF2809F460C086E064
S11308400E9459038B7109F05CC0C821C0FD02C02D
S1130850C1E001C0C2E0DC3009F054C08AE00E946B
S11308605903D82F8CE00E945903282F2770A9F030
S11308708D2F90E00197880F991F880F991F880F7B
S1130880991F820F911D092E000CAA0BBB0BF801B6
S113089080839183A283B38311C08D2F90E0880F4E
S11308A0991F880F991F880F991F092E000CAA0BF6
S11308B0BB0BF80180839183A283B383D11101C060
S11308C0D1E0D13108F0D0E1C12CD12C76010DC09A
S11308D085010C0D1D1D89E00E945903F8018083D8
S11308E0FFEFCF1ADF0AEF0AFF0A8D2F90E0A0E096
S11308F0B0E0C816D906EA06FB0650F303C0C3E00D
S113090001C0C3E08C2FDF91CF911F910F91FF9015
S1130910EF90DF90CF90BF90AF909F908F907F909B
S11309206F905F904F900895EF92FF920F931F93F3
S1130930CF93DF9300D000D0CDB7DEB7182F7B0163
S113094067E08DE00E944603F70110838E010F5F7C
S11309501F4F970141E0B7018CE00E94950381305D
S113096051F449815A816B817C8140315105610583
S1130970710519F403C083E001C083E00F900F9068
S11309800F900F90DF91CF911F910F91FF90EF90F7
S11309900895EF92FF920F931F93CF93DF9300D0AC
S11309A000D0CDB7DEB77C0160E08DE00E94460345
S11309B083E9F701808380E281838E010F5F1F4FFB
S11309C0970142E0B7018CE00E949503813091F4D5
S11309D007C0F701E90FF11D308123279F5F02C093
S11309E020E090E09430A8F3F701E90FF11D908125
S11309F0291383E00F900F900F900F90DF91CF9108
S1130A001F910F91FF90EF90089584B18C6284B987
S1130A108CB581658CBD08958EBD0DB407FEFDCFE8
S1130A208EB5089521E02093E1012091E101211187
S1130A30FCCF909389008093880008951F920F92B1
S1130A400FB60F9211241092E1010F900FBE0F9078
S1130A501F9018951F920F920FB60F9211240F90AA
S1130A600FBE0F901F90189584B1826084B983E003
S1130A7080936F008CE9809387008FE380938600D6
S1130A8087E0809389008FEC8093880082E88093CC
S1130A9080008AE1809381000895CF92DF92EF92E3
S1130AA0FF92CF93DF93EB01BC0180E090E00E94C2
S1130AB0D1066B017C01BE0180E090E00E94D1066A
S1130AC09B01AC01C701B6010E94300620E030E86A
S1130AD04BE355E40E945F0720E030EE49EF54E415
S1130AE00E94C4050E94A206CB010E941205DF9158
S1130AF0CF91FF90EF90DF90CF9008951F920F92C7
S1130B000FB60F9211242F933F938F939F93AF931C
S1130B10BF93EF93FF93ECE6F2E080819181209103
S1130B20C600DC01A651BE4F2C93019691838083AD
S1130B30EAE6F2E0208131812F5F3F4F3183208349
S1130B408038910520F010926D0210926C02FF9192
S1130B50EF91BF91AF919F918F913F912F910F9002
S1130B600FBE0F901F9018951F920F920FB60F9201
S1130B7011248F9381E0809316018F910F900FBE03
S1130B800F901F9018955058BB27AA270E94DB0589
S1130B900C9425070E94170738F00E941E0720F0C6
S1130BA039F49F3F19F426F40C9414070EF4E095DD
S1130BB0E7FB0C940E07E92F0E94360758F3BA1787
S1130BC0620773078407950720F079F4A6F50C945F
S1130BD058070EF4E0950B2EBA2FA02D0B01B90186
S1130BE090010C01CA01A0011124FF27591B99F09F
S1130BF0593F50F4503E68F11A16F040A22F232FAB
S1130C00342F4427585FF3CF469537952795A795FA
S1130C10F0405395C9F77EF41F16BA0B620B730BA1
S1130C20840BBAF09150A1F0FF0FBB1F661F771F12
S1130C30881FC2F70EC0BA0F621F731F841F48F4C7
S1130C40879577956795B795F7959E3F08F0B0CF50
S1130C509395880F08F09927EE0F97958795089537
S1130C600E9444060C9425070E941E0758F00E9417
S1130C70170740F029F45F3F29F00C940E07511137
S1130C800C9459070C9414070E94360768F39923AF
S1130C90B1F3552391F3951B550BBB27AA27621774
S1130CA07307840738F09F5F5F4F220F331F441F81
S1130CB0AA1FA9F335D00E2E3AF0E0E832D09150B5
S1130CC05040E695001CCAF72BD0FE2F29D0660FA2
S1130CD0771F881FBB1F261737074807AB07B0E8E5
S1130CE009F0BB0B802DBF01FF2793585F4F3AF0EB
S1130CF09E3F510578F00C940E070C9459075F3F02
S1130D00E4F3983ED4F3869577956795B795F79570
S1130D109F5FC9F7880F911D9695879597F9089558
S1130D20E1E0660F771F881FBB1F621773078407F4
S1130D30BA0720F0621B730B840BBA0BEE1F88F703
S1130D40E09508950E943E0788F09F5798F0B92FC8
S1130D509927B751B0F0E1F0660F771F881F991FEC
S1130D601AF0BA95C9F714C0B13091F00E9458072F
S1130D70B1E008950C945807672F782F8827B85F3F
S1130D8039F0B93FCCF3869577956795B395D9F744
S1130D903EF490958095709561957F4F8F4F9F4F4E
S1130DA00895E89409C097FB3EF49095809570955A
S1130DB061957F4F8F4F9F4F9923A9F0F92F96E9A3
S1130DC0BB279395F695879577956795B795F11118
S1130DD0F8CFFAF4BB0F11F460FF1BC06F5F7F4FB5
S1130DE08F4F9F4F16C0882311F096E911C07723C7
S1130DF021F09EE8872F762F05C0662371F096E8D0
S1130E00862F70E060E02AF09A95660F771F881F9E
S1130E10DAF7880F9695879597F9089597F99F675C
S1130E2080E870E060E008959FEF80EC089500246E
S1130E300A941616170618060906089500240A943B
S1130E4012161306140605060895092E0394000CC1
S1130E5011F4882352F0BB0F40F4BF2B11F460FF50
S1130E6004C06F5F7F4F8F4F9F4F089557FD905879
S1130E70440F551F59F05F3F71F04795880F97FB5A
S1130E80991F61F09F3F79F0879508951216130614
S1130E901406551FF2CF4695F1DF08C01616170643
S1130EA01806991FF1CF8695710561050894089578
S1130EB0E894BB2766277727CB0197F908950E940A
S1130EC072070C9425070E94170738F00E941E072A
S1130ED020F0952311F00C940E070C9414071124A0
S1130EE00C9459070E94360770F3959FC1F3950F30
S1130EF050E0551F629FF001729FBB27F00DB11D9A
S1130F00639FAA27F00DB11DAA1F649F6627B00D29
S1130F10A11D661F829F2227B00DA11D621F739F12
S1130F20B00DA11D621F839FA00D611D221F749F20
S1130F303327A00D611D231F849F600D211D822F67
S1130F40762F6A2F11249F5750409AF0F1F088238E
S1130F504AF0EE0FFF1FBB1F661F771F881F9150BB
S1130F605040A9F79E3F510580F00C940E070C9455
S1130F7059075F3FE4F3983ED4F3869577956795D8
S1130F80B795F795E7959F5FC1F7FE2B880F911DE5
S1130F909695879597F90895FB01DC0104C08D911E
S1130FA00190801921F441505040C8F7881B990BD7
S1130FB008950F931F93CF93DF93FB01238121FDAA
S1130FC003C08FEF9FEF2CC022FF16C046815781CC
S1130FD0248135814217530744F4A081B1819D01D6
S1130FE02F5F3F4F318320838C93268137812F5F7E
S1130FF03F4F3783268314C08B01EC01FB0100842F
S1131000F185E02D0995892BE1F6D80116968D918D
S11310109C911797019617969C938E931697CE01E1
S1131020DF91CF911F910F910895A0E0B0E0EBE123
S1131030F8E00C944F085B014A017901D901139639
S11310402C9121FF1DC0C0E0D0E0C815D905D9F00E
S11310508C016C01CA0CDB1CC8010C151D0571F058
S11310600F5F1F4FD7011896ED91FC911997B701A7
S1131070DC018C910995892B79F305C02196E5CF84
S113108080E090E001C0CE01CDB7DEB7ECE00C9477
S11310906B082F923F924F925F926F927F928F9242
S11310A09F92AF92BF92CF92DF92EF92FF920F93F3
S11310B01F93CF93DF93CDB7DEB7CA1BDB0B0FB6FD
S11310C0F894DEBF0FBECDBF09942A8839884888BA
S11310D05F846E847D848C849B84AA84B984C88450
S11310E0DF80EE80FD800C811B81AA81B981CE0F47
S11310F0D11D0FB6F894DEBF0FBECDBFED0108952C
S1071100F894FFCF8D
S113110400000002000000000C030000000040F88E
S11311148C1EAF51DA0201257800496E636F727236
S11311246563742056657273696F6E000A4D465286
S1131134433532322069732076657273696F6E2089
S1131144322E30000A0A4163636573732047726167
S11311546E746564000A0A416363657373204465AD
S11311646E696564005363616E20796F75722063E0
S11311746172642E000A0A0A005573652074686556
S113118420746F702050422E00746F206379636C56
S11311946520616D6F756E747300506F75722031C4
S11311A467204372656174696E6500507265737378
S11311B420326E6420627574746F6E00506F7572A1
S11311C4203567204372656174696E6500506F75DC
S11311D47220313067204372656174696E65000062
S9030000FC
